{
  "transactions": [
    {
      "hash": "0xa71524c88d68a768af86c180a585c3440c197c2233b6dfe9b57b52cf36c52e11",
      "transactionType": "CREATE",
      "contractName": "SimV1",
      "contractAddress": "0x9cDC0466a122DE119693f3D5BE19E165Dc56790E",
      "function": null,
      "arguments": [
        "11"
      ],
      "transaction": {
        "type": "0x00",
        "from": "0x20cd8eb93c50bdac35d6a526f499c0104958e3f6",
        "gas": "0x3e784",
        "value": "0x0",
        "data": "0x608060405234801561001057600080fd5b5060405161028c38038061028c83398101604081905261002f91610037565b600255610050565b60006020828403121561004957600080fd5b5051919050565b61022d8061005f6000396000f3fe608060405234801561001057600080fd5b50600436106100625760003560e01c80630900f010146100675780633fb5c1cb1461007c5780638381f58a1461008f5780638da5cb5b146100ab578063e1c7392a146100d6578063eeee1ebd146100ed575b600080fd5b61007a6100753660046101ae565b6100f4565b005b61007a61008a3660046101de565b610162565b61009860025481565b6040519081526020015b60405180910390f35b6000546100be906001600160a01b031681565b6040516001600160a01b0390911681526020016100a2565b61007a600080546001600160a01b03191633179055565b6001610098565b6000546001600160a01b031633146101405760405162461bcd60e51b815260206004820152600a60248201526937b7363c9037bbb732b960b11b60448201526064015b60405180910390fd5b600180546001600160a01b0319166001600160a01b0392909216919091179055565b6000546001600160a01b031633146101a95760405162461bcd60e51b815260206004820152600a60248201526937b7363c9037bbb732b960b11b6044820152606401610137565b600255565b6000602082840312156101c057600080fd5b81356001600160a01b03811681146101d757600080fd5b9392505050565b6000602082840312156101f057600080fd5b503591905056fea2646970667358221220129a5e8071fd0d7990d5f82c01fc9353d7e35dfc86b00159c6d7f385f3a32b0564736f6c63430008110033000000000000000000000000000000000000000000000000000000000000000b",
        "nonce": "0x1c7"
      },
      "additionalContracts": []
    },
    {
      "hash": "0x462a0ebbec48a471a0bae32a3d0400f9f54ba2c99dffc43da5b7de084cd45ccf",
      "transactionType": "CREATE",
      "contractName": null,
      "contractAddress": "0xE4b27DfB741538b71B545edE1bd2E3BbFD5c87D0",
      "function": null,
      "arguments": null,
      "transaction": {
        "type": "0x00",
        "from": "0x20cd8eb93c50bdac35d6a526f499c0104958e3f6",
        "gas": "0x1c10c",
        "value": "0x0",
        "data": "0x602080604038033d39808038038139513d51553d51603a80602460403990604a526040f3363d3d373d3d3d363d7f0000000000000000000000000000000000000000000000000000000000000000545af43d82803e3d8282603857fd5bf300000000000000000000000000000000000000000000000000000000000000010000000000000000000000009cdc0466a122de119693f3d5be19e165dc56790e",
        "nonce": "0x1c8"
      },
      "additionalContracts": []
    },
    {
      "hash": "0x6ec1bf8745e154c4359b0b4a7d18ac8961eb64a12faaae78319e49662c451f66",
      "transactionType": "CALL",
      "contractName": null,
      "contractAddress": "0xE4b27DfB741538b71B545edE1bd2E3BbFD5c87D0",
      "function": "init()",
      "arguments": [],
      "transaction": {
        "type": "0x00",
        "from": "0x20cd8eb93c50bdac35d6a526f499c0104958e3f6",
        "to": "0xe4b27dfb741538b71b545ede1bd2e3bbfd5c87d0",
        "gas": "0x103d9",
        "value": "0x0",
        "data": "0xe1c7392a",
        "nonce": "0x1c9"
      },
      "additionalContracts": []
    },
    {
      "hash": "0xdd469b691d17834bb6370b6865417861c836248828eb89d2607648374f231044",
      "transactionType": "CALL",
      "contractName": null,
      "contractAddress": "0xE4b27DfB741538b71B545edE1bd2E3BbFD5c87D0",
      "function": "setNumber(uint256)",
      "arguments": [
        "12"
      ],
      "transaction": {
        "type": "0x00",
        "from": "0x20cd8eb93c50bdac35d6a526f499c0104958e3f6",
        "to": "0xe4b27dfb741538b71b545ede1bd2e3bbfd5c87d0",
        "gas": "0x11021",
        "value": "0x0",
        "data": "0x3fb5c1cb000000000000000000000000000000000000000000000000000000000000000c",
        "nonce": "0x1ca"
      },
      "additionalContracts": []
    },
    {
      "hash": "0x39aac783a9e6bf7a9a605bc0c91482e926e8e0042b87e73d8226a6785fac6f39",
      "transactionType": "CREATE",
      "contractName": "SimV2",
      "contractAddress": "0xA2D9aa68ec2c981C11b26eB8f5243C118B17Ba67",
      "function": null,
      "arguments": [
        "11"
      ],
      "transaction": {
        "type": "0x00",
        "from": "0x20cd8eb93c50bdac35d6a526f499c0104958e3f6",
        "gas": "0x4611e",
        "value": "0x0",
        "data": "0x608060405234801561001057600080fd5b506040516102fb3803806102fb83398101604081905261002f91610037565b600255610050565b60006020828403121561004957600080fd5b5051919050565b61029c8061005f6000396000f3fe608060405234801561001057600080fd5b506004361061007d5760003560e01c80638da5cb5b1161005b5780638da5cb5b146100c6578063e1c7392a146100f1578063eeee1ebd14610108578063fce680231461010f57600080fd5b80630900f010146100825780633fb5c1cb146100975780638381f58a146100aa575b600080fd5b6100956100903660046101f6565b610122565b005b6100956100a5366004610226565b610190565b6100b360025481565b6040519081526020015b60405180910390f35b6000546100d9906001600160a01b031681565b6040516001600160a01b0390911681526020016100bd565b610095600080546001600160a01b03191633179055565b60016100b3565b61009561011d366004610226565b6101dc565b6000546001600160a01b0316331461016e5760405162461bcd60e51b815260206004820152600a60248201526937b7363c9037bbb732b960b11b60448201526064015b60405180910390fd5b600180546001600160a01b0319166001600160a01b0392909216919091179055565b6000546001600160a01b031633146101d75760405162461bcd60e51b815260206004820152600a60248201526937b7363c9037bbb732b960b11b6044820152606401610165565b600255565b80600260008282546101ee919061023f565b909155505050565b60006020828403121561020857600080fd5b81356001600160a01b038116811461021f57600080fd5b9392505050565b60006020828403121561023857600080fd5b5035919050565b8082018082111561026057634e487b7160e01b600052601160045260246000fd5b9291505056fea26469706673582212208beb3e0bdf92c4571c0cac4fde8a3a9dd4ce6c5575f6148b7f223f232619448c64736f6c63430008110033000000000000000000000000000000000000000000000000000000000000000b",
        "nonce": "0x1cb"
      },
      "additionalContracts": []
    },
    {
      "hash": "0xfa451f26da831ee975b15313dbebe4c749e6ae02228d6fbcd83f2219ea205463",
      "transactionType": "CALL",
      "contractName": null,
      "contractAddress": "0xE4b27DfB741538b71B545edE1bd2E3BbFD5c87D0",
      "function": "upgrade(address)",
      "arguments": [
        "0xA2D9aa68ec2c981C11b26eB8f5243C118B17Ba67"
      ],
      "transaction": {
        "type": "0x00",
        "from": "0x20cd8eb93c50bdac35d6a526f499c0104958e3f6",
        "to": "0xe4b27dfb741538b71b545ede1bd2e3bbfd5c87d0",
        "gas": "0xb4c5",
        "value": "0x0",
        "data": "0x0900f010000000000000000000000000a2d9aa68ec2c981c11b26eb8f5243c118b17ba67",
        "nonce": "0x1cc"
      },
      "additionalContracts": []
    },
    {
      "hash": "0x8edc8597f93baa67bcbaee2a0c7148edc6a15743e4b27b57a51e001e64bf1106",
      "transactionType": "CALL",
      "contractName": null,
      "contractAddress": "0xE4b27DfB741538b71B545edE1bd2E3BbFD5c87D0",
      "function": "addNumber(uint256)",
      "arguments": [
        "2"
      ],
      "transaction": {
        "type": "0x00",
        "from": "0x20cd8eb93c50bdac35d6a526f499c0104958e3f6",
        "to": "0xe4b27dfb741538b71b545ede1bd2e3bbfd5c87d0",
        "gas": "0xb32a",
        "value": "0x0",
        "data": "0xfce680230000000000000000000000000000000000000000000000000000000000000002",
        "nonce": "0x1cd"
      },
      "additionalContracts": []
    }
  ],
  "receipts": [
    {
      "transactionHash": "0xa71524c88d68a768af86c180a585c3440c197c2233b6dfe9b57b52cf36c52e11",
      "transactionIndex": "0x2",
      "blockHash": "0x72615bef8d7eda72e81ad391f9fbc8f6309c330d0ca2f0adf70dc614ab724cf7",
      "blockNumber": "0x1d5d4c7",
      "from": "0x20cD8eB93c50BDAc35d6A526f499c0104958e3F6",
      "to": null,
      "cumulativeGasUsed": "0x4dc0b",
      "gasUsed": "0x2f8a8",
      "contractAddress": "0x9cDC0466a122DE119693f3D5BE19E165Dc56790E",
      "logs": [],
      "status": "0x1",
      "logsBloom": "0x00000000000000000000000000000000000000000000000000000000000000000000000000000000000000000000000000000000000000000000000000000000000000000000000000000000000000000000000000000000000000000000000000000000000000000000000000000000000000000000000000000000000000000000000000000000000000000000000000000000000000000000000000000000000000000000000000000000000000000000000000000000000000000000000000000000000000000000000000000000000000000000000000000000000000000000000000000000000000000000000000000000000000000000000000000000",
      "type": "0x0",
      "effectiveGasPrice": "0x405f7e000"
    },
    {
      "transactionHash": "0x462a0ebbec48a471a0bae32a3d0400f9f54ba2c99dffc43da5b7de084cd45ccf",
      "transactionIndex": "0x3",
      "blockHash": "0x72615bef8d7eda72e81ad391f9fbc8f6309c330d0ca2f0adf70dc614ab724cf7",
      "blockNumber": "0x1d5d4c7",
      "from": "0x20cD8eB93c50BDAc35d6A526f499c0104958e3F6",
      "to": null,
      "cumulativeGasUsed": "0x62d43",
      "gasUsed": "0x15138",
      "contractAddress": "0xE4b27DfB741538b71B545edE1bd2E3BbFD5c87D0",
      "logs": [],
      "status": "0x1",
      "logsBloom": "0x00000000000000000000000000000000000000000000000000000000000000000000000000000000000000000000000000000000000000000000000000000000000000000000000000000000000000000000000000000000000000000000000000000000000000000000000000000000000000000000000000000000000000000000000000000000000000000000000000000000000000000000000000000000000000000000000000000000000000000000000000000000000000000000000000000000000000000000000000000000000000000000000000000000000000000000000000000000000000000000000000000000000000000000000000000000",
      "type": "0x0",
      "effectiveGasPrice": "0x405f7e000"
    },
    {
      "transactionHash": "0x6ec1bf8745e154c4359b0b4a7d18ac8961eb64a12faaae78319e49662c451f66",
      "transactionIndex": "0x4",
      "blockHash": "0x72615bef8d7eda72e81ad391f9fbc8f6309c330d0ca2f0adf70dc614ab724cf7",
      "blockNumber": "0x1d5d4c7",
      "from": "0x20cD8eB93c50BDAc35d6A526f499c0104958e3F6",
      "to": "0xE4b27DfB741538b71B545edE1bd2E3BbFD5c87D0",
      "cumulativeGasUsed": "0x6d7cf",
      "gasUsed": "0xaa8c",
      "contractAddress": null,
      "logs": [],
      "status": "0x1",
      "logsBloom": "0x00000000000000000000000000000000000000000000000000000000000000000000000000000000000000000000000000000000000000000000000000000000000000000000000000000000000000000000000000000000000000000000000000000000000000000000000000000000000000000000000000000000000000000000000000000000000000000000000000000000000000000000000000000000000000000000000000000000000000000000000000000000000000000000000000000000000000000000000000000000000000000000000000000000000000000000000000000000000000000000000000000000000000000000000000000000",
      "type": "0x0",
      "effectiveGasPrice": "0x405f7e000"
    },
    {
      "transactionHash": "0xdd469b691d17834bb6370b6865417861c836248828eb89d2607648374f231044",
      "transactionIndex": "0x5",
      "blockHash": "0x72615bef8d7eda72e81ad391f9fbc8f6309c330d0ca2f0adf70dc614ab724cf7",
      "blockNumber": "0x1d5d4c7",
      "from": "0x20cD8eB93c50BDAc35d6A526f499c0104958e3F6",
      "to": "0xE4b27DfB741538b71B545edE1bd2E3BbFD5c87D0",
      "cumulativeGasUsed": "0x7830c",
      "gasUsed": "0xab3d",
      "contractAddress": null,
      "logs": [],
      "status": "0x1",
      "logsBloom": "0x00000000000000000000000000000000000000000000000000000000000000000000000000000000000000000000000000000000000000000000000000000000000000000000000000000000000000000000000000000000000000000000000000000000000000000000000000000000000000000000000000000000000000000000000000000000000000000000000000000000000000000000000000000000000000000000000000000000000000000000000000000000000000000000000000000000000000000000000000000000000000000000000000000000000000000000000000000000000000000000000000000000000000000000000000000000",
      "type": "0x0",
      "effectiveGasPrice": "0x405f7e000"
    },
    {
      "transactionHash": "0x39aac783a9e6bf7a9a605bc0c91482e926e8e0042b87e73d8226a6785fac6f39",
      "transactionIndex": "0x6",
      "blockHash": "0x72615bef8d7eda72e81ad391f9fbc8f6309c330d0ca2f0adf70dc614ab724cf7",
      "blockNumber": "0x1d5d4c7",
      "from": "0x20cD8eB93c50BDAc35d6A526f499c0104958e3F6",
      "to": null,
      "cumulativeGasUsed": "0xad93e",
      "gasUsed": "0x35632",
      "contractAddress": "0xA2D9aa68ec2c981C11b26eB8f5243C118B17Ba67",
      "logs": [],
      "status": "0x1",
      "logsBloom": "0x00000000000000000000000000000000000000000000000000000000000000000000000000000000000000000000000000000000000000000000000000000000000000000000000000000000000000000000000000000000000000000000000000000000000000000000000000000000000000000000000000000000000000000000000000000000000000000000000000000000000000000000000000000000000000000000000000000000000000000000000000000000000000000000000000000000000000000000000000000000000000000000000000000000000000000000000000000000000000000000000000000000000000000000000000000000",
      "type": "0x0",
      "effectiveGasPrice": "0x405f7e000"
    },
    {
      "transactionHash": "0xfa451f26da831ee975b15313dbebe4c749e6ae02228d6fbcd83f2219ea205463",
      "transactionIndex": "0x7",
      "blockHash": "0x72615bef8d7eda72e81ad391f9fbc8f6309c330d0ca2f0adf70dc614ab724cf7",
      "blockNumber": "0x1d5d4c7",
      "from": "0x20cD8eB93c50BDAc35d6A526f499c0104958e3F6",
      "to": "0xE4b27DfB741538b71B545edE1bd2E3BbFD5c87D0",
      "cumulativeGasUsed": "0xb4e35",
      "gasUsed": "0x74f7",
      "contractAddress": null,
      "logs": [],
      "status": "0x1",
      "logsBloom": "0x00000000000000000000000000000000000000000000000000000000000000000000000000000000000000000000000000000000000000000000000000000000000000000000000000000000000000000000000000000000000000000000000000000000000000000000000000000000000000000000000000000000000000000000000000000000000000000000000000000000000000000000000000000000000000000000000000000000000000000000000000000000000000000000000000000000000000000000000000000000000000000000000000000000000000000000000000000000000000000000000000000000000000000000000000000000",
      "type": "0x0",
      "effectiveGasPrice": "0x405f7e000"
    },
    {
      "transactionHash": "0x8edc8597f93baa67bcbaee2a0c7148edc6a15743e4b27b57a51e001e64bf1106",
      "transactionIndex": "0x8",
      "blockHash": "0x72615bef8d7eda72e81ad391f9fbc8f6309c330d0ca2f0adf70dc614ab724cf7",
      "blockNumber": "0x1d5d4c7",
      "from": "0x20cD8eB93c50BDAc35d6A526f499c0104958e3F6",
      "to": "0xE4b27DfB741538b71B545edE1bd2E3BbFD5c87D0",
      "cumulativeGasUsed": "0xbbf57",
      "gasUsed": "0x7122",
      "contractAddress": null,
      "logs": [],
      "status": "0x1",
      "logsBloom": "0x00000000000000000000000000000000000000000000000000000000000000000000000000000000000000000000000000000000000000000000000000000000000000000000000000000000000000000000000000000000000000000000000000000000000000000000000000000000000000000000000000000000000000000000000000000000000000000000000000000000000000000000000000000000000000000000000000000000000000000000000000000000000000000000000000000000000000000000000000000000000000000000000000000000000000000000000000000000000000000000000000000000000000000000000000000000",
      "type": "0x0",
      "effectiveGasPrice": "0x405f7e000"
    }
  ],
  "libraries": [],
  "pending": [],
  "path": "/Users/jinmingzhi/go-www/src/github.com/xiaobaiskill/small-proxy/broadcast/proxy.s.sol/97/run-latest.json",
  "returns": {},
  "timestamp": 1687067547,
  "commit": "bbd9376"
}